:03000000026D96F8
:0C6D9600787FE4F6D8FD758121026DDDE8
:107A0600127F2E1284E812852312860912855212DD
:107A160082DB12850775B10CE4F5B2439204127449
:0F7A2600DA126FE112004612111B12670880F589
:0F84F8004F4B535049005350494F4B004F4B00CF
:10236C004106770044067A000000004106730041E4
:10237C00067E004106790043066FFF84F843066C25
:10238C00FF84FE430674FF85044106780041067203
:01239C000040
:030023000264D69E
:0D64D600C0E0C0F0C083C082C0D075D00807
:1064E3009005D1E4F0209803026585C298E599F000
:1064F300128610BF6922900376E0B4011B9005D188
:10650300E0FFB4AA089003767402F08075EF645537
:106513007070900376F0806A128610EF646A70627E
:106523009005D1E0FFB4AA18900678E070129003AA
:106533009874AAF09006727401F0900678F0804285
:10654300900678E06401703A900672E02498F58230
:10655300E43403F583EFF0900672E004F0E0B40A4C
:1065630021E4F0900678F0900398E0B4AA0F90032A
:10657300A1E0B455089003957401F080057F55128E
:09658300855D309904C299C2093A
:0B658C00D0D0D082D083D0F0D0E0321D
:03004300026BE36A
:0D6BE300C0E0C0F0C083C082C0D075D008F3
:106BF000E4FFE59A30E069539AFEAF9B900677E098
:106C000064017030900679E0FEB40113900673E0E1
:106C1000FD04F0747A2DF582E43406F583EFF0EF8D
:106C2000B44F11EE700E90067904F0900673F09058
:106C3000067AEFF0900673E0B40225900677E4F050
:106C4000900679F0787A7C067D01900674E0FBA3CB
:106C5000E0FAA3E0F9122DC7EF700590067E04F06C
:0A6C6000E59A30E105539AFDC209E0
:0B6C6A00D0D0D082D083D0F0D0E03238
:09855D002009FDEFD209F5992275
:1078D9009006C7EBF0A3EAF0A3E9F09006C7E0FB36
:1078E900A3E0FAA3E0F9122A8C60179006C7A3E473
:1078F90075F001122B6DA9F0FA122A8CFF12855D21
:0379090080D92200
:098566002009FDEFD209F59B226A
:10790C009006CAEBF0A3EAF0A3E9F09006CAE0FBFC
:10791C00A3E0FAA3E0F9122A8C60179006CAA3E43C
:10792C0075F001122B6DA9F0FA122A8CFF128566E4
:03793C0080D922CD
:09856F002009FDEFD209F5992263
:10793F009006CDEBF0A3EAF0A3E9F09006CDE0FBC3
:10794F00A3E0FAA3E0F9122A8C60179006CDA3E406
:10795F0075F001122B6DA9F0FA122A8CFF12856FA8
:03796F0080D9229A
:107F2E00E5A2543FF5A253BAFE759850759A507556
:107F3E00D7C875D6FE758E14438E01D2AC75AF01BF
:037F4E00D2AF228D
:0B71AC009003A5EBF0A3EAF0A3E9F0CC
:1071B7009003D07401F0A37403F0A374A8F09003B4
:1071C700A5E0F9A3E0FAA3E09006C1C9F0A3EAF0AD
:1071D700A3E9F09003D0E0F9A3E0FAA3E09006C496
:1071E700C9F0A3EAF0A3E9F07B017A0379D312751A
:0A71F700BD7B017A0379D30278D939
:1031E1000000000000FF7EE60102661400FF0006F9
:1031F1000203011500FF812B0304021900FF81491D
:103201000405031D00FF81670506041F00FF81857A
:103211000607052000FF81A30708062100FF81C1E1
:103221000809072600FF81DF090A082A00FF81FD3E
:103231000A0B092C00FF821B0B0C0A0B00FF001E5E
:103241000C0D0B0C00FF003E0D0E0C0D00FF872432
:103251000E660D0E00FF000E0F0F0F1201FF7573AA
:103261001010100F01FF78331111111001FF786B4D
:103271001212121401FF7F0A1313131101FF7ADFD7
:103281001414141301FF79A51516183502FF8414BF
:103291001617153902FF84261718163D02FF8438C8
:1032A1001815174102FF844A191A1C4503FF845C53
:1032B1001A1B194903FF846E1B1C1A4D03FF8480DE
:1032C1001C191B5103FF84921D1E1E5204FF8729E6
:1032D1001E1D1D5304FF872E1F1F1F1F05FF858104
:1032E1002020202006FF85892122645407FF87338F
:1032F1002223215507FF87382324225607FF873DC4
:103301002425235707FF87422560245807FF874755
:103311002627295908FF874C2728265A08FF875155
:103321002829275B08FF87562926285C08FF875B29
:103331002A2B2B2A09FF85152B2A2A5E09FF876074
:103341002C2D2D000AFF87652D2C2C000AFF876A82
:103351002E2E2E2E0BFF828F2F2F2F2F0CFF8591BC
:10336100303030300DFF8599313131310EFF739F8F
:103371003232323515FF80463333333215FF8068E0
:103381003434343315FF808A3535353415FF8239AD
:103391003636363916FF7B073737373616FF7B2F20
:1033A1003838383716FF7B573939393816FF7F518E
:1033B1003A3A3A3D17FF7B7F3B3B3B3A17FF7BA7EE
:1033C1003C3C3C3B17FF7BCF3D3D3D3C17FF7F74B1
:1033D1003E3E3E4118FF7BF73F3F3F3E18FF7C1FBB
:1033E1004040403F18FF7C474141414018FF7F97D3
:1033F1004242424519FF7C6F4343434219FF7C9788
:103401004444444319FF7CBF4545454419FF7FBAF5
:10341100464646491AFF7CE7474747461AFF7D0F54
:10342100484848471AFF7D37494949481AFF7FDD17
:103431004A4A4A4D1BFF7D5F4B4B4B4A1BFF7D8721
:103441004C4C4C4B1BFF7DAF4D4D4D4C1BFF800039
:103451004E4E4E511CFF7DD74F4F4F4E1CFF7DFFEF
:103461005050504F1CFF7E27515151501CFF80235B
:10347100525252521DFF85A1535353531EFF85A92A
:103481005454545421FF85B15555555522FF85B9E2
:103491005656565623FF85C15757575724FF825614
:1034A1005858585825FF85C95959595926FF7E9CA6
:1034B1005A5A5A5A27FF85D15B5B5B5B28FF85D936
:1034C1005C5C5C5C29FF85E15D5D5D5D2AFF778762
:1034D1005E5E5E5E2BFF78A35F5F5F5F5FFF748C54
:1034E1006062256107FF876F6161616160FF85E946
:1034F1006264606307FF87746363636362FF85F1DE
:103501006421626507FF87796565656564FF85F9F3
:1035110066010E6600FF877E6768686966FF0026A0
:103521006867676A66FF84A46969696967FF6413EC
:0B3531006A6A6A6A68FF6ABA0000005C
:10239D004105D90041060E004105DA004505E10071
:1023AD00000001004505EB00000001004505F600A9
:1023BD000000010045060200000001004505E60091
:1023CD00000001004505F100000001004505FD007C
:1023DD000000010045060800000001004105F00164
:1023ED004105FC014105FB004106070041060D00BA
:1023FD004106100141061300410616064106180359
:10240D004106190141061A0041061B0041060F0B3A
:10241D004106120041061500410617004106110242
:10242D00410614004105D60141061C014105D701A5
:10243D004105E0004105D5004205DB000042061DC7
:0A244D0000014105D8004105D4004C
:101BF500E490058AF0A3F0A3F0A3F0A3F030B30CB2
:101C050030B60930B70630A503021FCD128507305F
:101C1500B30C30B60930B70630A503021FCD1286C6
:101C2500B820B30990058AE4F0A37438F020B6090A
:101C350090058AE4F0A37434F020B70990058AE48E
:101C4500F0A3742CF020A50990058AE4F0A3743C58
:101C5500F090058AE07004A3E064386003021F6712
:101C65001286A67F0112869A30B303021F6790057C
:101C75008DE06003021F671283FCEF70069005DAA2
:101C8500E060131283FCEF640170489005DAE0FF11
:101C95006004645F703D1286A090058CEFF0C394DC
:101CA5001440C59005DA7402F0E490058AF0A3F0BB
:101CB500D2CDC2977F011280ED128652BF010A7FF5
:101CC5006F7E00127978021EB17F787E001277C18F
:101CD500021EB19005DAE0FF6442600FEF644360D5
:101CE5000AEF64446005EF6445702F1286A09005E5
:101CF5008CEFF0C3940A5003021C6DE490058AF042
:101D0500A3F07B017A0579E6125C4E40077F797E68
:101D150000127978128507021EB19005DAE0FF649A
:101D250046600FEF6447600AEF64486005EF644959
:101D3500702F1286A090058CEFF0C3940A50030211
:101D45001C6DE490058AF0A3F07B017A0579F11208
:101D55005B2A40077F797E00127978128507021E7B
:101D6500B19005DAE0FF644A600FEF644B600AEF5B
:101D7500644C6005EF644D702F1286A090058CEFC2
:101D8500F0C3940A5003021C6DE490058AF0A3F099
:101D95007B017A0579FD12568A40077F797E00120C
:101DA5007978128507021EB19005DAE0FF644E606E
:101DB5000FEF644F600AEF64506005EF6451702FB8
:101DC5001286A090058CEFF0C3940A5003021C6D97
:101DD500E490058AF0A3F07B017A0679081257B5DD
:101DE50040077F797E00127978128507021EB1902F
:101DF50005DAE0B40C1E1286A090058CEFF0C394B2
:101E0500145003021C6D1283EF90058EEFF01282C1
:101E1500F4021EB19005DAE0B40D1E1286A09005FD
:101E25008CEFF0C394145003021C6D1283DC9005F3
:101E35008EEFF01282F4021EB19005DAE0B40E1FA7
:101E45001286A090058CEFF0C394145003021C6D0C
:101E5500E490058AF0A3F09005DA7431F0804D9096
:101E650005DAE0B466241286A090058CEFF0C394E1
:101E7500145003021C6DE490058AF0A3F09005DA76
:101E85007467F07F0112810C80229005DAE0B42A94
:101E9500271286A090058CEFF0C394145003021C02
:101EA5006D1283C990058EEFF01282F490058D7442
:101EB50001F01286A6021C6D9005DAE0642D7025EE
:101EC5001286A090058CEFF0C394145003021C6D8C
:101ED500E490058AF0A3F07F79FE127978127201F9
:101EE50012698A80679005DAE0642C6003021C6D34
:101EF5001286A090058CEFF0C394145003021C6D5C
:101F0500E490058AF0A3F07F79FE127978127201C8
:101F150012774B12698A7B017A03797B9005C47429
:101F250010F07D207C157FA01272651285077B015C
:101F35007A0079469005C47410F07D307C157FA039
:101F450012726512850712709F12850775C760E4C6
:101F55009005DAF090058D04F01286A675C1300261
:101F65001C6D30B3FD30B6FA30B7F730A5F41285E5
:101F75000730B3FD30B6FA30B7F730A5F4E4FF12F9
:101F8500869AE4FF1286B29005DAE0645E60231259
:101F95008652EF60119005DAE0D3940E40047F017C
:101FA50080067F0080027F01EF60077F787E001248
:101FB50077C190058DE070089005D904F002235E85
:101FC500E49005D9F002235E123C6DEFF470030234
:101FD5002367128507123C6DEFF470030223671225
:101FE5003C6D90058AE4F0A3EFF01286B890058A5F
:101FF500E07004A3E0640360030223081286A67F51
:102005000112869A123C6DEF640360030223089067
:10201500058DE060030223081283FCEF700690052E
:10202500DAE060131283FCEF640170489005DAE092
:10203500FF6004645F703D1286A090058CEFF0C3CD
:10204500941440C09005DA7402F0E490058AF0A378
:10205500F0D2CDC2977F011280ED128652BF010AE0
:102065007F6F7E001279780222527F787E00127788
:10207500C10222529005DAE0FF6442600FEF64432B
:10208500600AEF64446005EF6445702F1286A090E6
:10209500058CEFF0C3940A5003022009E490058AE9
:1020A500F0A3F07B017A0579E6125C4E40077F7953
:1020B5007E001279781285070222529005DAE0FF38
:1020C5006446600FEF6447600AEF64486005EF649B
:1020D50049702F1286A090058CEFF0C3940A500327
:1020E500022009E490058AF0A3F07B017A0579F1D5
:1020F500125B2A40077F797E0012797812850702E4
:1021050022529005DAE0FF644A600FEF644B600AE3
:10211500EF644C6005EF644D702F1286A090058C1E
:10212500EFF0C3940A5003022009E490058AF0A356
:10213500F07B017A0579FD12568A40077F797E008A
:102145001279781285070222529005DAE0FF644E73
:10215500600FEF644F600AEF64506005EF645170E3
:102165002F1286A090058CEFF0C3940A500302202D
:1021750009E490058AF0A3F07B017A0679081257E5
:10218500B540077F797E00127978128507022252C1
:102195009005DAE0B40C1E1286A090058CEFF0C312
:1021A500941450030220091283EF90058EEFF0126C
:1021B50082F40222529005DAE0B40D1E1286A09038
:1021C500058CEFF0C3941450030220091283DC90B0
:1021D500058EEFF01282F40222529005DAE0B40E79
:1021E5001F1286A090058CEFF0C3941450030220B3
:1021F50009E490058AF0A3F09005DA7431F0804D7A
:102205009005DAE0B466241286A090058CEFF0C341
:1022150094145003022009E490058AF0A3F0900578
:10222500DA7467F07F0112810C80229005DAE0B440
:102235002A271286A090058CEFF0C3941450030250
:1022450020091283C990058EEFF01282F490058D56
:102255007401F01286A60220099005DAE0642D705B
:10226500251286A090058CEFF0C39414500302202C
:1022750009E490058AF0A3F07F79FE12797812724D
:102285000112698A80679005DAE0642C60030220F8
:10229500091286A090058CEFF0C394145003022018
:1022A50009E490058AF0A3F07F79FE12797812721D
:1022B5000112774B12698A7B017A03797B9005C4F9
:1022C5007410F07D207C157FA01272651285077B46
:1022D500017A0079469005C47410F07D307C157F35
:1022E500A012726512850712709F12850775C76067
:1022F500E49005DAF090058D04F01286A675C130DC
:10230500022009123C6DBFFFFA128507123C6DBF12
:10231500FFFAE4FF12869AE4FF1286B29005DAE02E
:10232500645E6023128652EF60119005DAE0D39463
:102335000E40047F0180067F0080027F01EF600769
:102345007F787E001277C190058DE070079005D9E2
:1023550004F08005E49005D9F090058AE0FEA3E03D
:06236500FF227E0F7FFF46
:01236B00224F
:10506800E4900588F0A3F0FF121BF5900588EEF098
:10507800A3EFF012870C900588E0640F7003A3E09B
:10508800F46003025169EF640160030251699005FD
:10509800DAE0FF601C640B6018EF640C6013EF64C7
:1050A8000D600EEF640E6009EF642D6004EFB42C00
:1050B8002A900655E0540FFFBF080890060EE0043A
:1050C800F08005E490060EF090060EE0D3940340BD
:1050D8000A7F141286BEE490060EF012871212861A
:1050E800CAEF6005E49005D9F0900655E0540FFF2B
:1050F800640860069005D97401F0EF24FE60292445
:10510800FE603524FC6041240770561286D0EF708B
:1051180050900588F0A3743CF09005DAE0B43106AD
:105128001283A112850780341286D0EF7033900560
:1051380088F0A37434F080241286D0EF7023900591
:1051480088F0A3742CF080141286CAEF70131286AC
:10515800D0EF700D900588F0A37438F07F051286A3
:10516800D6900588E0FEA3E0FFD39400EE940040BB
:105178000AD3EF9420EE9400500122900588E0FEB7
:10518800A3E0FFEE701DEF24D4601224F8600B2416
:10519800FC600D24FC700C7F1B227F13227F0B22E6
:0551A8007F03227FFFE0
:0151AD0022DF
:1000460078847C057D017BFF7A3579397E007F03D4
:10005600122A66E4FF900587F0125068EF24FDB47B
:100066001E0040030210F090007B75F003A4C583C8
:1000760025F0C583730200D5020D96020D9A020D76
:100086009E020DA2020DA60210F00210F00203F16C
:10009600020DD1020DDA020DDE020DE2020DE602BC
:1000A60010F00210F00208F00210F0020E0D020E1F
:1000B60011020E15020E1D0210F00210F00203CB03
:1000C6000210F0020EE3020EF7020FEE0210E41227
:1000D60083FCEF70069005DAE060121283FCEF6491
:1000E6000170229005DAE0FF6003B45F181286A063
:1000F600900587EFF0C3941450030210F09005DAD0
:1001060074020202559005DAE0FF6442600FEF6464
:1001160043600AEF64446005EF6445702D1286A0C3
:10012600900587EFF0C3940A40657B017A0579E66E
:10013600125C4E4057128682BF010C7F797E0012F8
:100146007978E4FF1286880202209005DAE0FF64DF
:1001560046600FEF6447600AEF64486005EF644944
:1001660070301286A0900587EFF0C3940A40207B7A
:10017600017A0579F1125B2A4012128682BF010CC0
:100186007F797E00127978E4FF12868802022002C7
:1001960002269005DAE0FF644A600FEF644B600ABE
:1001A600EF644C6005EF644D702E1286A0900587B3
:1001B600EFF0C3940A401F7B017A0579FD12568A37
:1001C6004012128682BF010C7F797E00127978E494
:1001D600FF128688804480489005DAE0FF644E600E
:1001E6000FEF644F600AEF64506005EF645170438F
:1001F6001286A0900587EFF0C3940A40237B017A0C
:100206000679081257B54012128682BF010C7F7913
:100216007E00127978E4FF1286881285070203C5EC
:100226009005DAE075F008A424E4F582E5F03431AF
:10023600020D8B9005DAE0B40B1E1286A09005879E
:10024600EFF0C3941450030210F09005DA742EF008
:100256007F061285470203C59005DAE0B40C1E122C
:1002660086A0900587EFF0C3941450030210F09017
:1002760005DA742FF07F061285470203C59005DA6A
:10028600E0B40D1E1286A0900587EFF0C3941450BB
:10029600030210F09005DA7430F07F0612854702EB
:1002A60003C59005DAE0B40E1E1286A0900587EF0E
:1002B600F0C3941450030210F09005DA7431F07F05
:1002C600061285470203C59005DAE0B4661E12865B
:1002D600A0900587EFF0C3941450030210F0900528
:1002E600DA7467F07F061285470203C59005DAE0E7
:1002F600B42A1E1286A0900587EFF0C3941450030B
:100306000210F09005DA745DF07F0612854702034D
:10031600C59005DAE0642D701F1286A0900587EF60
:10032600F0C3941450030210F07F797E001279789E
:1003360012720112698A805E9005DAE0642C706799
:100346001286A0900587EFF0C3941450030210F0B4
:100356007F797E0012797812720112774B12698AC0
:100366007B017A03797B9005C47410F07D207C159F
:100376007FA01272651285077B017A007946900587
:10038600C47410F07D307C157FA01272651285074B
:1003960012709F12850775C7607F06128547128601
:1003A600A675C1300210F09005DAE075F008A424B5
:1003B600E4F582E5F03431F583E4939005DAF01242
:1003C60086A60210F09005DAE0B45F0C1283FCEF0B
:1003D6006006126B4F0210F09005DAE075F008A483
:1003E60024E5F582E5F03431020D8B9005DAE01252
:1003F6002C1D04AD0F04BF1004CE1104DD1204F051
:1004060013050214077E1F07922008902F087C30E0
:10041600051432052633053834054A35055C36059C
:100426006E3705803805923905A43A05B63B05C8EE
:100436003C05DA3D05EC3E05FE3F0610400622412E
:10044600063442064643065844066A45067C460676
:100456008E4706A04806B24906C44A06D64B06E8A9
:100466004C06FA4D070C4E071E4F073050074251F7
:1004760007535207695307A65407BA5507CF5607BD
:10048600E15707F558080959081D5A082E5B083F19
:100496005C08505D08645E08775F08A36108B66370
:1004A60008C965000008DD900680E0B46305E4F045
:1004B6000208DD900680020872900681E0B40C0204
:1004C600801C900681020872900682E0B41F0280AA
:1004D6000D900682020872900686E0B40706740143
:1004E600F00208DD900686020872900683E0B417D3
:1004F60005E4F00208DD900683020872900684E0A7
:10050600B43B05E4F00208DD90068402087290050B
:10051600E1E0B41405E4F00208DD9005E10208729A
:100526009005E2E0B40905E4F00208DD9005E20278
:1005360008729005E3E0B40905E4F00208DD9005D1
:10054600E30208729005E4E0B40905E4F00208DD70
:100556009005E40208729005EBE0B41405E4F0029D
:1005660008DD9005EB0208729005ECE0B40905E49D
:10057600F00208DD9005EC0208729005EDE0B40982
:1005860005E4F00208DD9005ED0208729005EEE044
:10059600B40905E4F00208DD9005EE020872900544
:1005A600F6E0B41405E4F00208DD9005F6020872E0
:1005B6009005F7E0B40905E4F00208DD9005F702BE
:1005C60008729005F8E0B40905E4F00208DD90052C
:1005D600F80208729005F9E0B40905E4F00208DDB6
:1005E6009005F9020872900602E0B41405E4F002E0
:1005F60008DD900602020872900603E0B40905E4DD
:10060600F00208DD900603020872900604E0B409C1
:1006160005E4F00208DD900604020872900605E083
:10062600B40905E4F00208DD90060502087290059B
:10063600E6E0B41405E4F00208DD9005E60208726F
:100646009005E7E0B40905E4F00208DD9005E7024D
:1006560008729005E8E0B40905E4F00208DD9005AB
:10066600E80208729005E9E0B40905E4F00208DD45
:100676009005E90208729005F1E0B41405E4F00271
:1006860008DD9005F10208729005F2E0B40905E470
:10069600F00208DD9005F20208729005F3E0B40955
:1006A60005E4F00208DD9005F30208729005F4E017
:1006B600B40905E4F00208DD9005F402087290051D
:1006C600FDE0B41405E4F00208DD9005FD020872B1
:1006D6009005FEE0B40905E4F00208DD9005FE028F
:1006E60008729005FFE0B40905E4F00208DD900504
:1006F600FF020872900600E0B40905E4F00208DD86
:10070600900600020872900608E0B41405E4F002B0
:1007160008DD900608020872900609E0B40905E4AF
:10072600F00208DD90060902087290060AE0B40994
:1007360005E4F00208DD90060A02087290060BE056
:10074600B40904E4F0800690060BE004F09005F08E
:10075600E0B401067402F00208DA9005F07401F0C4
:100766000208DA9005FCE0B463057401F080069097
:1007760005FCE004F00208DA9005FBE0B46304E44B
:10078600F080069005FBE004F00208DA900607E028
:10079600B46304E4F08006900607E004F00208DA89
:1007A60090060DE0B40704E4F0800690060DE00420
:1007B600F00208DA900610E0B401057409F080062C
:1007C600900610E014F00208DA900613E0700404B4
:1007D600F08005E4900613F00208DA900616E0B4FD
:1007E6000904E4F08006900616E004F00208DA90A8
:1007F6000618E0B40704E4F08006900618E004F05A
:100806000208DA90060FE0B40B04E4F080069006C6
:100816000FE004F00208DA900612E0B40B05E4F0EB
:100826000208DD9006128044900615E0B40B05E43C
:10083600F00208DD9006158033900617E0B40B052C
:10084600E4F00208DD9006178022900611E0B4015C
:10085600057402F080069006117401F08076900609
:1008660014E0B42604E4F0806E900614E004F080F0
:1008760066126650806190061CE0B401057402F0B1
:10088600800690061C7401F0804A9005D6E0B401FB
:1008960004E4F080069005D67401F08037900619BE
:1008A600E0B40104E4F080069006197401F0802497
:1008B60090061AE0B40104E4F0800690061A74016A
:1008C600F0801190061BE0B40104E4F08006900667
:1008D6001B7401F012698A9005DAE075F008A42409
:1008E600E2F582E5F03431020D8B9005DAE0122C48
:1008F6001D09AC0F09BE1009D11109E41209F7133D
:100906000A09140C241F0C38200D2E2F0D1A300A3C
:100916001B320A2A330A39340A48350A57360A6618
:10092600370A75380A84390A933A0AA23B0AB13C57
:100936000AC03D0ACF3E0ADE3F0AED400AFC410BE3
:100946000B420B1A430B29440B38450B47460B55F4
:10095600470B64480B73490B814A0B8F4B0B9D4C1D
:100966000BAB4D0BB94E0BCB4F0BD9500BE7510BC5
:10097600F9520C0F530C4C540C60550C75560C87E1
:10098600570C9B580CAF590CC35A0CD05B0CDD5C52
:100996000CEE5D0D025E0D155F0D41610D54630D8C
:1009A600676500000D7B900680E070067463F002B8
:1009B6000D7B900680020D10900681E0B40106744E
:1009C6000CF0020D7B900681020D10900682E0B4B9
:1009D6000106741FF0020D7B900682020D10900630
:1009E60086E0B401067407F0020D7B900686020DC0
:1009F60010900683E070067417F0020D7B90068354
:100A0600020D10900684E07006743BF0020D7B9098
:100A16000684020D109005E1E07003020BBF9005FD
:100A2600E1020D109005E2E07003020BED9005E285
:100A3600020D109005E3E07003020BED9005E30252
:100A46000D109005E4E07003020BED9005E4020D35
:100A5600109005EBE07003020BBF9005EB020D1042
:100A66009005ECE07003020BED9005EC020D109082
:100A760005EDE07003020BED9005ED020D109005FB
:100A8600EEE07003020BED9005EE020D109005F6F8
:100A9600E07003020BBF9005F6020D109005F7E01B
:100AA6007003020BED9005F7020D109005F8E0704B
:100AB60003020BED9005F8020D109005F9E07003A6
:100AC600020BED9005F9020D10900602E07003028C
:100AD6000BBF900602020D10900603E07003020B96
:100AE600ED900603020D10900604E07003020BED74
:100AF600900604020D10900605E07003020BED90BF
:100B06000605020D109005E6E07003020BBF900586
:100B1600E6020D109005E7E07003020BED9005E785
:100B2600020D109005E8E07003020BED9005E80257
:100B36000D109005E9E07003020BED9005E9020D3A
:100B4600109005F1E0700280709005F1020D109092
:100B560005F2E07003020BED9005F2020D10900510
:100B6600F3E07003020BED9005F3020D109005F40F
:100B7600E0700280729005F4020D109005FDE070A1
:100B86000280369005FD020D109005FEE070028091
:100B9600569005FE020D109005FFE0700280489009
:100BA60005FF020D10900600E07002803A900600E4
:100BB600020D10900608E070067414F0020D7B908A
:100BC6000608020D10900609E07002801A900609C8
:100BD600020D1090060AE07002800C90060A020DC3
:100BE6001090060BE070067409F0020D7B90060B60
:100BF600020D109005F0E0B401067402F0020D78C3
:100C06009005F07401F0020D789005FCE0B4010542
:100C16007463F080069005FCE014F0020D789005F0
:100C2600FBE070057463F080069005FBE014F002AB
:100C36000D78900607E070057463F080069006074D
:100C4600E014F0020D7890060DE070057407F08050
:100C56000690060DE014F0020D78900610E0B4013F
:100C6600057409F08006900610E014F0020D7890E5
:100C76000613E0700404F08005E4900613F0020DFC
:100C860078900616E070057409F08006900616E066
:100C960014F0020D78900618E070057407F08006CF
:100CA600900618E014F0020D7890060FE0700574B7
:100CB6000BF0800690060FE014F0020D78900612F5
:100CC600E0700280189006128040900615E07002CF
:100CD600800B9006158033900617E07006740BF0B3
:100CE600020D7B9006178022900611E0B401057470
:100CF60002F080069006117401F08076900614E0EA
:100D060070057426F0806E900614E014F08066126A
:100D16005D62806190061CE0B401057402F08006F5
:100D260090061C7401F0804A9005D6E0B40104E4F4
:100D3600F080069005D67401F08037900619E0B46D
:100D46000104E4F080069006197401F080249006F0
:100D56001AE0B40104E4F0800690061A7401F080EB
:100D66001190061BE0B40104E4F0800690061B74A3
:100D760001F012698A9005DAE075F008A424E3F51B
:100D860082E5F03431F583E4939005DAF00210F051
:100D9600E4FF807D7F0780797F0480757F01807105
:100DA600C39005DCE094E79005DBE09403500FA3C5
:100DB600E004F070139005DBE004F00210EA900501
:100DC600DB7403F0A374E7F00210EAE49005DBF0AD
:100DD600A3020FEA7F0880397F0580357F028031C4
:100DE600D39005DCE094009005DBE09400400EA370
:100DF600E024FFF09005DBE034FFF08007E4900587
:100E0600DBF0A3F00210EA7F0980067F0680027FEE
:100E16000312734F0210F09005DBE0FAA3E0FB7CAF
:100E2600037DE8FFAE02122B187E007F64CFCDCF84
:100E3600CECCCE122B189005E0E0C454F04F9005AE
:100E460084F07C007D64AF03AE02122B187E007F17
:100E56000ACFCDCFCECCCE122B18EFC454F0FB90D8
:100E660005DBE0FEA3E0FF7C007D0A122B18EB4DAC
:100E7600900585F0A37408F0C2A8C28E1282739002
:100E86000584E0FFA3E0FDA3E0FB123E7490058419
:100E9600E0FFA3E0FDA3E0FB123E74900584E0FFB3
:100EA600A3E0FDA3E0FB123E74900584E0FFA3E0FF
:100EB600FDA3E0FB123E74900584E0FFA3E0FDA3D2
:100EC600E0FB123E74900584E0FFA3E0FDA3E0FB87
:100ED600123E74D2A89005D47401020FEA12440798
:100EE60090061EE004F0700690061DE004F0021065
:100EF600EA900059E075F00AA4FDACF0900058E0C5
:100F060075F064A42DFFE5F03CFE90005AE07C00ED
:100F16002FFFEC3ECF24FFCF34FF9005DBF0A3EF8D
:100F2600F09005DBE0FAA3E0FB7C037DE8FFAE0270
:100F3600122B187E007F64CFCDCFCECCCE122B18CD
:100F46009005E0E0C454F04F900584F07C007D6489
:100F5600AF03AE02122B187E007F0ACFCDCFCECCC8
:100F6600CE122B18EFC454F0FB9005DBE0FEA3E095
:100F7600FF7C007D0A122B18EB4D900585F0A374BB
:100F860008F0C2A8C28E128273900584E0FFA3E027
:100F9600FDA3E0FB123E74900584E0FFA3E0FDA3F1
:100FA600E0FB123E74900584E0FFA3E0FDA3E0FBA6
:100FB600123E74900584E0FFA3E0FDA3E0FB123E21
:100FC60074900584E0FFA3E0FDA3E0FB123E74905D
:100FD6000584E0FFA3E0FDA3E0FB123E74D2A890D7
:100FE60005D47401F00210EA900059E075F00AA4E5
:100FF600FDACF0900058E075F064A42DFFE5F03CE0
:10100600FE90005AE07C002FFFEC3ECF2401CF3447
:10101600009005DBF0A3EFF09005DBE0FAA3E0FB20
:101026007C037DE8FFAE02122B187E007F64CFCDD5
:10103600CFCECCCE122B189005E0E0C454F04F90E2
:101046000584F07C007D64AF03AE02122B187E008F
:101056007F0ACFCDCFCECCCE122B18EFC454F0FBE7
:101066009005DBE0FEA3E0FF7C007D0A122B18EB67
:101076004D900585F0A37408F0C2A8C28E12827343
:10108600900584E0FFA3E0FDA3E0FB123E7490050B
:1010960084E0FFA3E0FDA3E0FB123E74900584E02C
:1010A600FFA3E0FDA3E0FB123E74900584E0FFA3DE
:1010B600E0FDA3E0FB123E74900584E0FFA3E0FD93
:1010C600A3E0FB123E74900584E0FFA3E0FDA3E0DD
:1010D600FB123E74D2A89005D47401F080069005E8
:1010E600D57401F0125A06126C7A9005DAE075F0A2
:1010F60008A424E6F582E5F03431F583E493FB7425
:101106000193FA740293F99005DDEBF0A3EAF0A3DC
:05111600E9F0022C438A
:0D8507007F047E347DDCDDFEDEFADFF60051
:018514002244
:04837900AB07AA069E
:0F837D00E4FCECC39BE49A50061285070C80F3D6
:01838C0022CE
:058610009005DAE0FF17
:018615002242
:068616009005DAEFF022EE
:05861C009005F0E0FFF5
:018621002236
:058622009005FCE0FFE3
:018627002230
:058628009005FBE0FFDE
:01862D00222A
:05862E00900607E0FFCB
:018633002224
:0586340090060DE0FFBF
:01863900221E
:05863A00900610E0FFB6
:01863F002218
:05864000900613E0FFAD
:018645002212
:05864600900616E0FFA4
:01864B00220C
:05864C00900618E0FF9C
:018651002206
:05865200900619E0FF95
:018657002200
:0586580090061AE0FF8E
:01865D0022FA
:05865E0090061BE0FF87
:0186630022F4
:0586640090060FE0FF8D
:0186690022EE
:05866A00900612E0FF84
:01866F0022E8
:05867000900615E0FF7B
:0186750022E2
:05867600900617E0FF73
:01867B0022DC
:0D83C900E490058AF0A3F09005DA745DF0F1
:0583D600900611E0FF1C
:0183DB00227F
:05867C00900614E0FF70
:0186810022D6
:058682009005D9E0FFA6
:0186870022D0
:068688009005D9EFF0227D
:0D83DC00E490058AF0A3F09005DA7430F00B
:0583E90090061CE0FFFE
:0183EE00226C
:0D83EF00E490058AF0A3F09005DA742FF0F9
:0583FC009005D6E0FF32
:018401002258
:10698A009005F0E090068FF09005FCE0900690F0FC
:10699A009005FBE0900691F0900607E0900692F0D1
:1069AA0090060DE0900693F0900610E0900694F0A1
:1069BA00900613E0900695F0900616E0900696F081
:1069CA00900618E0900697F0900619E0900698F065
:1069DA0090061AE0900699F090061BE090069AF04D
:1069EA0090060FE090069BF0900611E090069CF04E
:1069FA009005D6E090069DF090061CE090069EF069
:106A0A007B017A06798F9005C47410F07D407C155D
:086A1A007FA0127265028507DE
:104947007B017A03797B9005CE7410F07D207C156E
:104957007FA0126EA81285077B017A007946900521
:10496700CE7410F07D307C157FA0126EA8128507DB
:104977007B017A06798F9005CE7410F07D407C1507
:104987007FA0126EA812850790068FE0FF9005F0B2
:10499700F0900690E09005FCF0900691E09005FB02
:1049A700F0900692E0900607F0900693E090060DCF
:1049B700F0900694E0900610F0900695E0900613AC
:1049C700F0900696E0900616F0900697E09006188D
:1049D700F0900698E0900619F0900699E090061A74
:1049E700F090069AE090061BF090069BE090060F69
:1049F700F090069CE0900611F090069DE09005D699
:104A0700F090069EE090061CF0EFD39402400690CB
:104A170005F07401F0900690E0D39463400690058A
:104A2700FC7401F0900691E0D3946340069005FB77
:104A37007401F0900692E0D39463400690060774E1
:104A470001F0900693E0D394074005E490060DF03B
:104A5700900695E0D394014005E4900613F0900684
:104A670096E0D3940940069006167406F0900697D0
:104A7700E0D3940740069006187403F0900698E078
:104A8700D394014005E4900619F0900699E0D39479
:104A9700014005E490061AF090069AE0D39401408D
:104AA70005E490061BF090069BE0D3940B4006901C
:104AB700060F740BF090069CE0D394024006900614
:104AC700117402F090069DE0D3940140069005D63C
:104AD7007401F090069EE0D39402400690061C7481
:034AE70001F022B9
:107201009005F07401F09005FCF0E49005FBF0901E
:107211000607F090060DF090061004F0E4900613B6
:10722100F09006167406F09006187403F0A374012A
:10723100F0E4A3F0A3F090060F740AF0E4900612B4
:10724100F0900615F0900617F09006117402F0E424
:05725100900614F0227C
:10774B007F1090037B7401F0A3DFFC900046740163
:10775B00F0E4A3F0A37403F0A37405F0A37402F098
:10776B00A314F0A3F0A37406F0A37401F0A3F0A389
:0B777B00F0A3F0A3F0A3F0A3F0A3F034
:0177860022E0
:10734F00AB079005D5E0B4010C9005E0EBF0E490AD
:10735F0005D5F080359005D4E0B4010BE49005DB42
:10736F00F0A3F09005D4F09005DBE0FEA3E0FFC39F
:10737F009464EE940050137C007D0A122B06EF2BC1
:10738F00FFEC3E9005DBF0A3EFF0125A06026C7A89
:1080CD0000000000000000000000000000000000A3
:1080DD000000000000000000000000000000000093
:102457005500313F065B4F666D7D077F6F777C398F
:102467005E797176385C733E48038B01020408106D
:1024770020408042039340006030000100000000CC
:102487000000000000000000000000000000000045
:102497000000000000000000000000000000000035
:1024A700000000000000000000000000632000564C
:1024B7000000000000000000000000000000000015
:1024C7000000000000000000000000000000000005
:1024D70000000000000000000000000000000000F5
:1024E70000000000000000000000000000000000E5
:1027D700410000004103A40050037B0101010101F6
:1027E7000101010101010101010101500046010040
:1027F7000305020101060101010101010101420373
:10280700960000410376004203A2000041039500B1
:0728170044037700000000FC
:107A3500C282E4FDFCC280EF30E004D2818002C244
:107A45008100000000D280EFC313FF0DBD00010CC3
:0A7A5500ED64084C70DFC280C281AE
:017A5F002204
:107A6000C283E4FDFCC280EF30E004D2818002C218
:107A70008100000000D280EFC313FF0DBD00010C98
:0A7A8000ED64084C70DFC280C28183
:017A8A0022D9
:107A8B00C2CCE4FDFCC280EF30E004D2818002C2A4
:107A9B008100000000D280EFC313FF0DBD00010C6D
:0A7AAB00ED64084C70DFC280C28158
:017AB50022AE
:09832200AE077F4012832B7FC0DF
:0D832B00D282000000000000C282027A35FC
:0C82A90012832BD2827F401282B57FC06E
:0D82B500D283000000000000C283027A6046
:0C82C2001282B5D2837F401282CE7FC0B2
:0D82CE00D2CC000000000000C2CC027A8B70
:056C7500E4900001F0B5
:106C7A0012864C128322E4FB74012BF582E4340061
:106C8A00F583E0FF127A3574092BF582E43400F5B6
:106C9A0083E0FF127A350BEBB408DDEE2488FF128D
:106CAA0082A9E4FB74112BF582E43400F583E0FF3A
:106CBA00127A6074192BF582E43400F583E0FF122E
:106CCA007A600BEBB408DDEE2488FF1282C2E4FB83
:106CDA0074212BF582E43400F583E0FF127A8B7479
:106CEA00292BF582E43400F583E0FF127A8B0BEB53
:0C6CFA00B408DDEE2488FF1282CED2CC5C
:016D0600226A
:103C6D0090059074FFF07F4212832BD2A7E490054C
:103C7D008FF0E4FFC28090058FE0FE2477F582E49B
:103C8D003403F583E0C313F0D28030A70E74772E82
:103C9D00F582E43403F583E04480F0000000000079
:103CAD00000FEFB408CE000000000000000000007F
:103CBD000000900377E0FF700FA3E0700BA3E0709E
:103CCD0007A3E07003023E5AEF24FE602424FE6039
:103CDD002824FC602C24F8603024F0603424E0604B
:103CED003824C0603C247F703E9005907419F0809C
:103CFD00369005907411F0802E9005907409F08027
:103D0D00269005907401F0801E900590741AF08035
:103D1D00169005907412F0800E900590740AF08044
:103D2D00069005907402F0900378E024FE60242440
:103D3D00FE602824FC602C24F8603024F0603424CC
:103D4D00E0603824C0603C247F703E900590741B69
:103D5D00F080369005907413F0802E900590740BC2
:103D6D00F080269005907403F0801E900590741CD1
:103D7D00F080169005907414F0800E900590740CE0
:103D8D00F080069005907404F0900379E024FE60B5
:103D9D002424FE602824FC602C24F8603024F0607C
:103DAD003424E0603824C0603C247F703E90059040
:103DBD00741DF080369005907415F0802E9005904E
:103DCD00740DF080269005907405F0801E9005907E
:103DDD00741EF080169005907416F0800E9005906C
:103DED00740EF080069005907406F090037AE0242E
:103DFD00FE602424FE602824FC602C24F86030240E
:103E0D00F0603424E0603824C0603C247F703E9024
:103E1D000590741FF080369005907417F0802E90E9
:103E2D000590740FF080269005907407F0801E9019
:103E3D0005907420F080169005907418F0800E9007
:103E4D0005907410F080069005907408F090058F21
:103E5D00E004F0E064046003023C7FC280C2A7D29C
:063E6D0082900590E0FFC9
:013E7300222C
:10760700128322E4FBAF06127A35AF06127A350BE6
:10761700EBB408F17F8F1282A9E4FBAF06127A6000
:10762700AF06127A600BEBB408F17F8F1282C2E4C7
:10763700FBAF06127A8BAF06127A8B0BEBB408F10D
:077647007F8F1282CED2CC2E
:01764E002219
:106FE100E4900584F0E4FFE4FE900584E0248BF551
:106FF10082E43403F583E0FDEF75F008A42401F584
:1070010082E43400F583E5822EF582E43583F5834D
:10701100EDF00EEEB408D20FEFB406CB126C7A90FD
:107021000584E0B401077F7B7E001279787F1E1210
:0E7031008402900584E004F0E0C3940840A7B8
:01703F00222E
:10840200EFD39400400B7EFF7DFFDDFEDEFA1F807E
:01841200EF7A
:018413002246
:107AB600E4FFE4FEEF75F008A42401F582E4340047
:107AC600F583E5822EF582E43583F583E4F00EEE48
:087AD600B408E10FEFB406DA79
:017ADE002285
:0A8531007F78900056E4F0A3DFFC11
:01853B00221D
:1077FB00E4FF12868EEF6401702D127AB6125A06D0
:10780B00900000E05403FF2401F582E43400F5837B
:10781B007440F0126C7AE4FF128694900000E0043E
:07782B00F0E0B40402E4F0F8
:017832002233
:10479E00128658EF6003024843127AB6126E2290C8
:1047AE000033E0900008F0900031E0900007F090A8
:1047BE000680E0FF75F00A842431F582E43400F5BA
:1047CE0083E0900006F0EF75F00A84743125F0F561
:1047DE0082E43400F583E0900005F0900681E0FF5E
:1047EE0075F00A842431F582E43400F583E09000FC
:1047FE000AF0EF75F00A84743125F0F582E4340086
:10480E00F583E0900009F0900682E0FF75F00A84CF
:10481E002431F582E43400F583E090000CF0EF755E
:10482E00F00A84743125F0F582E43400F583E090CB
:10483E00000B0248DC127AB6126E22900033E09022
:10484E00000CF0900031E090000BF0900680E0FF3D
:10485E0075F00A842431F582E43400F583E090008B
:10486E000AF0EF75F00A84743125F0F582E4340015
:10487E00F583E0900009F0900681E0FF75F00A8460
:10488E002431F582E43400F583E0900008F0EF75F2
:10489E00F00A84743125F0F582E43400F583E0905B
:1048AE000007F0900682E0FF75F00A842431F5824D
:1048BE00E43400F583E0900006F0EF75F00A84749E
:1048CE003125F0F582E43400F583E0900005F09098
:1048DE000686E02431F582E43400F583E090000D85
:1048EE00F0900683E0FF75F00A842431F582E434FB
:1048FE0000F583E0900004F0EF75F00A8474312522
:10490E00F0F582E43400F583E0900003F090068425
:10491E00E0FF75F00A842431F582E43400F583E07B
:10492E00900002F0EF75F00A84743125F0F582E400
:09493E003400F583E0126C7622CE
:1080ED00AD07127AB6900040E0900002F074312D89
:0F80FD00F582E43400F583E0900001F0026C7A24
:10810C00AD07127AB690003FE0900002F074312D6A
:0F811C00F582E43400F583E0900001F0026C7A04
:10838D00127AB6900031E0900002F090000174373F
:04839D00F0026C7A04
:10833800127AB6900031E0900002F0900040E09090
:068348000001F0026C7A56
:1082F400AD07127AB674312DF582E43400F583E0CB
:07830400900001F0026C7A09
:1079D600AD07127AB6ED75F00A842431F582E434E7
:1079E60000F583E0900002F0ED75F00A847431250D
:1079F600F0F582E43400F583E0900001F0026C7A41
:10704000AB07AA06127AB67C007D64AF03AE0212CB
:107050002B1874312FF58274003EF583E090000305
:10706000F07C007D0AAF03AE02122B187C007D0A73
:10707000122B1874312DF58274003CF583E09000DA
:1070800002F0AE02AF037C007D0A122B1874312D82
:0F709000F58274003CF583E0900001F0026C7A09
:0670FB007B017A0579E13A
:10710100127AB6122A8C2431F582E43400F583E038
:10711100900004F0900001122AA52431F582E43494
:1071210000F583E0900003F0900002122AA52431BB
:10713100F582E43400F583E0900002F09000031240
:107141002AA52431F582E43400F583E0900001F0B2
:03715100026C7A53
:10659700AB07AA069005D5E0B4011F9005E0E024FB
:1065A70031F582E43400F583E0900008F0900007AD
:1065B7007440F0900006F002664BEB4A70109000B2
:1065C700087440F0900007F0900006F08076900580
:1065D700E0E02431F582E43400F583E0900008F030
:1065E7007C037DE8AF03AE02122B187E007F64CFD9
:1065F700CDCFCECCCE122B1874312FF58274003E3E
:10660700F583E0900007F07C007D64AF03AE0212D3
:106617002B187E007F0ACFCDCFCECCCE122B18748D
:10662700312FF58274003EF583E0900006F0AE024C
:10663700AF037C007D0A122B1874312DF58274008C
:096647003CF583E0900005F0220F
:106F0F00AB07AA067C037DE8122B187E007F64CFA7
:106F1F00CDCFCECCCE122B1874312FF58274003E0C
:106F2F00F583E0900010F07C007D64AF03AE021299
:106F3F002B187E007F0ACFCDCFCECCCE122B18745C
:106F4F00312FF58274003EF583E090000FF0AE0212
:106F5F00AF037C007D0A122B1874312DF58274005B
:096F6F003CF583E090000EF022D5
:10715400E49005BAF01286229005BAE0FEC39F506F
:107164001AEE75F008A42456F582740035F0F58300
:10717400E060089005BAE004F080DA9005BAE0FF18
:1071840075F00A842431F582E43400F583E090003C
:107194000AF0EF75F00A84743125F0F582E43400C6
:0771A400F583E0900009F003
:0171AB0022C1
:106A220090061EE024FFFF90061DE034FFFED39087
:106A320005DCE09F9005DBE09E4005E4FAFB801C4C
:106A42009005DBE0FEA3E0FFC390061EE09FFF90EF
:106A5200061DE09ECF24FFFBEF34FFFA7C007D642D
:106A6200AF03AE02122B1874312FF58274003EF57B
:106A720083E090000DF07C007D64AF03AE02122B28
:106A8200187E007F0ACFCDCFCECCCE122B18743118
:106A92002FF58274003EF583E090000CF07C007DBF
:106AA2000AAF03AE02122B1874312DF58274003C2A
:076AB200F583E090000BF0FA
:016AB90022BA
:105A0600127AB6900096E060179005BD7401F0A377
:105A16007400F0A37496F07B017A0079301242325A
:105A260090008EE060179005BD7401F0A37400F03D
:105A3600A3748EF07B017A00792C12423290008694
:105A4600E060179005BD7401F0A37400F0A374869E
:105A5600F07B017A00792812423290007EE06017CE
:105A66009005BD7401F0A37400F0A3747EF07B0171
:105A76007A007924124232900076E060179005BDD4
:105A86007401F0A37400F0A37476F07B017A0079B8
:105A96002012423290006EE060179005BD7401F04E
:105AA600A37400F0A3746EF07B017A00791C124295
:105AB60032900066E060179005BD7401F0A3740093
:105AC600F0A37466F07B017A0079181242329000D6
:105AD6005EE060179005BD7401F0A37400F0A37436
:105AE6005EF07B017A007914124232900056E06033
:105AF600179005BD7401F0A37400F0A37456F07BF3
:105B0600017A0079041242329005DBE0FEA3E0FF41
:105B160012659790061DE0FEA3E0FF126F0F12714B
:045B260054026A2299
:104232009005BAEBF0A3EAF0A3E9F0A3E0FBA3E058
:10424200FAA3E0F9900001122AA52431F582E434A0
:1042520000F583E0FF9005BAE0FBA3E0FAA3E0F9E2
:10426200EF122AD29005BDE0FBA3E0FAA3E0F99099
:104272000002122AA52431F582E43400F583E0FF1E
:104282009005BAE0FBA3E0FAA3E0F990FFFFEF127A
:104292002AE49005BDE0FBA3E0FAA3E0F990000355
:1042A200122AA52431F582E43400F583E0FF90055B
:1042B200BAE0FBA3E0FAA3E0F990FFFEEF122AE4D2
:1042C2009005BDE0FBA3E0FAA3E0F9900004122AF6
:1042D200A52431F582E43400F583E0FF9005BAE0CD
:1042E200FBA3E0FAA3E0F990FFFDEF122AE49005A8
:1042F200BDE0FBA3E0FAA3E0F9900005122AA55461
:104302000F24FD603614700302439524FD700302EE
:1043120043DA1470030243ED24066003024406905C
:1043220005BAE0FBA3E0FAA3E024FDF9EA34FFFAC0
:10433200122A8C4480122AD20243DA9005BAE0FB98
:10434200A3E0FAA3E024FDF9EA34FFFA122A8C442E
:1043520080122AD29005BAE0FBA3E0FAA3E024FE81
:10436200F9EA34FFFA122A8C4480122AD29005BA52
:10437200E0FBA3E0FAA3E024FFF9EA34FFFA122AF1
:104382008C4480122AD29005BAE0FBA3E0FAA3E0A3
:10439200F980699005BAE0FBA3E0FAA3E024FDF9F5
:1043A200EA34FFFA122A8C4480122AD29005BAE02B
:1043B200FBA3E0FAA3E024FEF9EA34FFFA122A8C06
:1043C2004480122AD29005BAE0FBA3E0FAA3E024CB
:1043D200FFF9EA34FFFA80249005BAE0FBA3E0FA81
:1043E200A3E024FEF9EA34FFFA80119005BAE0FB5B
:1043F200A3E0FAA3E024FDF9EA34FFFA122A8C447E
:0544020080122AD22205
:107E7600C002C0019005AFE0F9A3E0FAA3E09005C7
:107E8600B5C9F0A3EAF0A3E9F0D001D002125E5B17
:067E9600125A06026C7A8C
:105E5B009005B2EBF0A3EAF0A3E9F0A3E0FBA3E01B
:105E6B00FAA3E0F9122A8CFF9005B2E0FBA3E0FA4B
:105E7B00A3E0F9EF122AD29005B5E0FBA3E0FAA359
:105E8B00E0F9900001122AA5FF9005B2E0FBA3E018
:105E9B00FAA3E0F9900001EF122AE49005B5E0FBBC
:105EAB00A3E0FAA3E0F9900002122AA5FF9005B235
:105EBB00E0FBA3E0FAA3E0F9900002EF122AE490D2
:105ECB0005B5E0FBA3E0FAA3E0F9900003122AA5C5
:105EDB00FF9005B2E0FBA3E0FAA3E0F9900003EF1B
:105EEB00122AE49005B5E0FBA3E0FAA3E0F99000D9
:105EFB0004122AA5FF9005B2E0FBA3E0FAA3E0F998
:105F0B00900004EF122AE49005B5E0FBA3E0FAA39E
:105F1B00E0F9900007122AA5FF9005B2E0FBA3E081
:0B5F2B00FAA3E0F9900005EF022AE461
:09743E002456F974003EFA7B01AA
:10744700122A8C900008122AE4900001122AA590B3
:107457000009122AE4900002122AA590000A122AB3
:10746700E4900003122AA590000B122AE49000046E
:10747700122AA590000C122AE4900005122AA59062
:05748700000D022AE4E3
:0E72AB0075F008A42456F9740035F0FA7B0142
:1072B900900008122AA5122AD2900009122AA59034
:1072C9000001122AE490000A122AA5900002122A4B
:1072D900E490000B122AA5900003122AE490000CF6
:1072E900122AA5900004122AE490000D122AA590F2
:0572F9000005022AE47B
:104AEA0078B07C057D017BFF7A8079CD7E007F08D6
:104AFA00122A66E49005B8F0A3F01286409005B831
:104B0A00EFF01286349005B9EFF012862E9005AEBA
:104B1A00EFF01286289005AFEFF01286AC9005AF41
:104B2A00E0FE9005AEE0FDC39E500AEF9D4006EE02
:104B3A006003E0701B9005AFE06003024C659005CE
:104B4A00AEE0FE7003024C65EFD39E5003024C6543
:104B5A00E49005ACF09005ACE0FFC3940A5022EF54
:104B6A0075F008A42456F582740035F0F583E070D8
:104B7A00089005ACE0A3F080089005ACE004F08052
:104B8A00D4E49005ACF09005ADE024FFFFE434FFD7
:104B9A00FEEF7803C333CE33CED8F9FF9005ACE0ED
:104BAA00FD7A002FFFEA3EFE74562FF58274003E0E
:104BBA00F583E0FF74B02DF582E43405F583EFF058
:104BCA009005ACE004F0E0B406BC9005ADE09005B9
:104BDA00ACF09005ACE0FFD39401401DEF24FEFF3A
:104BEA00E434FFFEEF7803C333CE33CED8F9127420
:104BFA003E9005ACE014F080D9E49005ACF0900545
:104C0A00ACE0FF24B0F582E43405F583E0FE745687
:104C1A002FF582E43400F583EEF09005ACE004F061
:104C2A00E0B406DA125A06126C7AE4FF1286B290DF
:104C3A0005B8E0B401257B017A007956900056E068
:104C4A00FD9005BEE4F0A3EDF090005BE0540F90F8
:0B4C5A0005C0F09005B9E0FF1237EA3A
:014C6500222C
:1061AF00E49005B2F0A3F012862E9005ADEFF01239
:1061BF0086289005AEEFF01286AC9005AFEFF01287
:1061CF0086229005B0EFF012861C9005B1EFF01209
:1061DF00863A9005B3EFF09005ADE0FFA3E0FEC364
:1061EF009F500EA3E09E4009EF60069005AEE07051
:1061FF00119005ADE07078A3E0FF6073A3E0D39F2B
:10620F00406DE49005ACF09005B0E014FD9005AC46
:10621F00E0FFC39D500CEF1272AB9005ACE004F0A1
:10622F0080E5ED33333354F89005ACF09005B0E0D2
:10623F0075F008A4FF9005ACE0FDC39FE5F0648006
:10624F00F8748098501474562DF582E43400F58359
:10625F00E4F09005ACE004F080D2125A06126C7A8A
:0F626F00E4FF1286B2900056E07004FF1286160C
:01627E0022FD
:106B4F00E4900588F0128622900588EFF0E4FDFCB2
:106B5F00900588E024FFFFE434FFFEC3ED9FEC9E19
:106B6F00501FEDAE047803C333CE33CED8F924567D
:106B7F00F974003EFA7B011272B90DBD00010C8051
:106B8F00CF900588E024FFFFE434FFFEEF7803C3C6
:106B9F0033CE33CED8F9FDAC06900588E075F008FA
:106BAF00A4FFC3ED9FEC95F0501374562DF582742E
:106BBF00003CF583E4F00DBD00010C80DC9004D3A4
:106BCF00E014F0125A06126C7A900056E07004FF2F
:036BDF0012861605
:016BE2002290
:1066500078897C057D017BFF7A8079D57E007F0675
:10666000122A66128622900588EFF0128622AD0764
:10667000E4FCECC39D501CEC75F008A42456F58294
:10668000740035F0F583E07007900588ECF0800326
:106690000C80DFE4FC74562CF582E43400F583E0D2
:1066A000FF74892CF582E43405F583EFF00CECB42B
:1066B00006E3E4FC900588E0FFECC39F5007EC1272
:1066C00072AB0C80EFE4FC74892CF582E43405F5A0
:1066D00083E0FD900588E024FFFFE434FFFEEF78BF
:1066E00003C333CE33CED8F9FFEC7A002FFFEA3E56
:1066F000FE74562FF58274003EF583EDF00CECB479
:0867000006C5125A06026C7A6C
:105D6200788A7C057D017BFF7A8079DB7E007F0665
:105D7200122A66128622900589EFF0128622AD075A
:105D8200E4900588F0900588E0FFC39D5022EF75EE
:105D9200F008A42456F582740035F0F583E070080B
:105DA200900588E0A3F08008900588E004F080D593
:105DB200E4900588F0900589E024FFFFE434FFFEBB
:105DC200EF7803C333CE33CED8F9FF900588E0FDD8
:105DD2007A002FFFEA3EFE74562FF58274003EF5DC
:105DE20083E0FF748A2DF582E43405F583EFF090A9
:105DF2000588E004F0E0B406BC900589E0900588CF
:105E0200F0900588E0FFD39401401DEF24FEFFE4EB
:105E120034FFFEEF7803C333CE33CED8F912743E8B
:105E2200900588E014F080D9E4900588F090058808
:105E3200E0FF248AF582E43405F583E0FE74562FF0
:105E4200F582E43400F583EEF0900588E004F0E09A
:095E5200B406DA125A06026C7A59
:0B3A44009005ACEBF0A3EAF0A3E9F062
:103A4F0078B87C057D017BFF7A8079E17E007F0667
:103A5F00122A661286229005B4E4F0A3EFF01286C4
:103A6F00229005B6E4F0A3EFF0E49005B2F0A3F0D6
:103A7F009005B6E0FEA3E0FF9005B2E0FCA3E0FDE9
:103A8F00C39FEC9E4003023B8AEDAE047803C33321
:103A9F00CE33CED8F9FF9005AFE0FBA3E0FAA3E059
:103AAF002FF9EA3EFA900001122AA5FD9005ACE02D
:103ABF00FBA3E0FAA3E0F9900001122AA56D6003C1
:103ACF00023B769005AFE0FBA3E0FAA3E02FF9EA03
:103ADF003EFA900002122AA5FF9005ACE0FBA3E08E
:103AEF00FAA3E0F9900002122AA56F707A9005B23E
:103AFF00E0FEA3E07803C333CE33CED8F9FF9005B1
:103B0F00AFE0FBA3E0FAA3E02FF9EA3EFA9000033F
:103B1F00122AA5FD9005ACE0FBA3E0FAA3E0F99013
:103B2F000003122AA5B5053F9005AFE0FBA3E0FA0D
:103B3F00A3E02FF9EA3EFA900004122AA5FF9005A0
:103B4F00ACE0FBA3E0FAA3E0F9900004122AA5B5BC
:103B5F0007159004D3E014F09005B2E0FFA3E0A3A3
:103B6F00CFF0A3EFF080149005B3E004F0600302F0
:103B7F003A7F9005B2E004F0023A7F9005B4E0700E
:103B8F0002A3E070031283A19005B4E0FFA3E090BD
:103B9F0005B2CFF0A3EFF09005B6E0FEA3E0FF90E3
:103BAF0005B2E0FCA3E0FDC39FEC9E502FEDAE04E9
:103BBF007803C333CE33CED8F9FF9005AFE0FBA324
:103BCF00E0FAA3E02FF9EA3EFA1272B99005B3E0DA
:103BDF0004F070C39005B2E004F080BB9005B6E02E
:103BEF00FEA3E0FF9005B4E06E7003A3E06F605991
:103BFF00E49005B2F0A3F09005B2E0FCA3E0FDC3A2
:103C0F009406EC940050429005B7E024FFFF900516
:103C1F00B6E034FFFEEF7803C333CE33CED8F9FFCF
:103C2F009005AFE0FBA3E0FAA3E02FF9EA3EFAE933
:103C3F002DF9EA3CFAE4122AD29005B3E004F070B1
:103C4F00B69005B2E004F080AE9005AFE0FBA3E0C4
:0D3C5F00FAA3E0F9122A8C7004FF128616F9
:013C6C002235
:0B4C6600900591EBF0A3EAF0A3E9F049
:104C710078987C057D017BFF7A8079E77E007F064D
:104C8100122A66128622900597EFF0128622AD074E
:104C9100E4FCECC39D4003024D73EC75F008A4FFE6
:104CA100900594E0FBA3E0FAA3E02FF9EA35F0FACE
:104CB100900001122AA5FF900591E0FBA3E0FAA361
:104CC100E0F9900001122AA56F6003024D6FEC75A7
:104CD100F008A4FF900594E0FBA3E0FAA3E02FF90C
:104CE100EA35F0FA900002122AA5FF900591E0FB47
:104CF100A3E0FAA3E0F9900002122AA56F706FEC0D
:104D010075F008A4FF900594E0FBA3E0FAA3E02F5F
:104D1100F9EA35F0FA900003122AA5FF900591E017
:104D2100FBA3E0FAA3E0F9900003122AA56F703EFD
:104D3100EC75F008A4FF900594E0FBA3E0FAA3E072
:104D41002FF9EA35F0FA900004122AA5FF90059197
:104D5100E0FBA3E0FAA3E0F9900004122AA5B5074D
:104D61000D9004D3E014F0900597ECF080040C0250
:104D71004C93900597E0FCECC39D501CEC75F0083A
:104D8100A4FF900594E0FBA3E0FAA3E02FF9EA3534
:104D9100F0FA1272B90C80DF900597E06D6035E48E
:104DA100FCED24FFFFE434FFFEEF7803C333CE3381
:104DB100CED8F9FF900594E0FBA3E0FAA3E02FF928
:104DC100EA3EFAEC7E0029F9EE3AFAE4122AD20C14
:044DD100ECB406CD6B
:014DD50022BB
:107EE600E4FF1283E9E49004D3F0EFB40107D2CDA6
:107EF6001277FB800312479E1283FCBF0103128593
:037F060031C297EE
:017F09002255
:05000600E4FF0280EDA3
:10812B007F011280ED128682BF0112128652BF01AF
:0E813B000C7F6F7E00127978E4FF1286882296
:108149007F021280ED128682BF0112128652BF0190
:0E8159000C7F707E001277C1E4FF1286882230
:108167007F031280ED128682BF0112128652BF0171
:0E8177000C7F717E001277C1E4FF1286882211
:108185007F041280ED128682BF0112128652BF0152
:0E8195000C7F727E001277C1E4FF12868822F2
:1081A3007F051280ED128682BF0112128652BF0133
:0E81B3000C7F737E001277C1E4FF12868822D3
:1081C1007F061280ED128682BF0112128652BF0114
:0E81D1000C7F747E001277C1E4FF12868822B4
:1081DF007F071280ED128682BF0112128652BF01F5
:0E81EF000C7F757E001277C1E4FF1286882295
:1081FD007F081280ED128682BF0112128652BF01D6
:0E820D000C7F767E001277C1E4FF1286882275
:10821B007F091280ED128682BF0112128652BF01B6
:0E822B000C7F777E001277C1E4FF1286882256
:05001E007F0A0280EDE5
:05003E007F0B0280EDC4
:058724007F0C0280ED56
:0D000E007F0D1280EDE4FF12853CD2CD2263
:1075730012868EBF010812479E7F021286941286DE
:107583008EEF64037031128658EF7012900008F08A
:10759300900007F0900006F0900005F08011E49051
:1075A300000CF090000BF090000AF0900009F0122C
:0A75B3006C7AE4FF128694026D0763
:1078330012868EBF010812479E7F0212869412861B
:107843008EBF0321128658EF700A90000AF0900051
:1078530009F08009E4900008F0900007F0126C7AB8
:08786300E4FF128694026D0798
:10786B0012868EBF010812479E7F021286941286E3
:10787B008EBF0321128658EF700A90000CF0900017
:10788B000BF08009E4900006F0900005F0126C7A82
:08789B00E4FF128694026D0760
:107F0A0012868EBF010812479E7F0212869412863D
:107F1A008EBF030DE490000DF0126C7AE4FF128616
:047F2A0094026D0749
:107ADF0012868EBF010812479E7F0212869412866D
:107AEF008EBF0311E4900004F0900003F0126C7A43
:087AFF00E4FF128694026D07FA
:1079A5001283E9EFB401057F0102861612868EBFA8
:1079B500010812479E7F0212869412868EBF030D20
:1079C500E4900002F0126C76E4FF128694126D07C3
:0179D500228F
:108414007F0112810CE49005E1F0A3F0A3F0A30422
:02842400F02244
:108426007F0212810CE49005EBF0A3F0A3F0A30405
:02843600F02232
:108438007F0312810CE49005F6F0A3F0A3F0A304E7
:02844800F02220
:10844A007F0412810CE4900602F0A3F0A3F0A304C7
:02845A00F0220E
:10845C007F0112810CE49005E6F0A3F0A3F0A304D5
:02846C00F022FC
:10846E007F0212810CE49005F1F0A3F0A3F0A304B7
:02847E00F022EA
:108480007F0312810CE49005FDF0A3F0A3F0A30498
:02849000F022D8
:108492007F0412810CE4900608F0A3F0A3F0A30479
:0284A200F022C6
:058729007F0102810C3C
:05872E007F0202810C36
:08858100E4FF1286280279D6FE
:08858900E4FF12862E0279D6F0
:058733007F0102810C32
:058738007F0202810C2C
:05873D007F0302810C26
:058742007F0402810C20
:058747007F0502810C1A
:05874C007F0102810C19
:058751007F0202810C13
:058756007F0302810C0D
:05875B007F0402810C07
:0E8515007F0112810C1283D69003A4EFF02296
:058760007F0202810C04
:058765007F0102810C00
:05876A007F0202810CFA
:10828F00E4FFFEFDFC128578AC06AD077E277F105C
:0A829F00122B18AC06AD0702704068
:08859100E4FF1283FC0282F4F6
:08859900E4FF1283E90282F401
:10739F001286C4900588EFF0D394145031E0FAC3ED
:1073AF00940450028019EAD394125013900588E088
:1073BF00C3132489F582E43403F583E0FF80027F51
:1073CF00FF12760730A4077F3C7E00127978900574
:0F73DF0088E0D394144006127AB6126C7AC2CDAD
:0173EE00227C
:1080460012868EBF01081270FB7F0212869412867A
:108056008EBF030DE4900004F0126C7AE4FF1286E2
:02806600942262
:1080680012868EBF01081270FB7F02128694128658
:108078008EBF030DE4900003F0126C7AE4FF1286C1
:02808800942240
:10808A0012868EBF01081270FB7F02128694128636
:10809A008EBF030DE4900002F0126C7AE4FF1286A0
:0280AA0094221E
:1082390012868EBF01081270FB7F02128694128685
:0D8249008EBF0308126C75E4FF12869422AC
:107B070012868EBF010E7B017A0579EB1271017F18
:107B17000212869412868EBF030DE4900004F012C1
:087B27006C7AE4FF128694223F
:107B2F0012868EBF010E7B017A0579EB1271017FF0
:107B3F000212869412868EBF030DE4900003F0129A
:087B4F006C7AE4FF1286942217
:107B570012868EBF010E7B017A0579EB1271017FC8
:107B67000212869412868EBF030DE4900002F01273
:087B77006C7AE4FF12869422EF
:107F510012868EBF010E7B017A0579EB1271017FCA
:107F61000212869412868EBF0308126C75E4FF120A
:037F7100869422D1
:107B7F0012868EBF010E7B017A0579F61271017F95
:107B8F000212869412868EBF030DE4900004F01249
:087B9F006C7AE4FF12869422C7
:107BA70012868EBF010E7B017A0579F61271017F6D
:107BB7000212869412868EBF030DE4900003F01222
:087BC7006C7AE4FF128694229F
:107BCF0012868EBF010E7B017A0579F61271017F45
:107BDF000212869412868EBF030DE4900002F012FB
:087BEF006C7AE4FF1286942277
:107F740012868EBF010E7B017A0579F61271017F9C
:107F84000212869412868EBF0308126C75E4FF12E7
:037F9400869422AE
:107BF70012868EBF010E7B017A0679021271017F10
:107C07000212869412868EBF030DE4900004F012D0
:087C17006C7AE4FF128694224E
:107C1F0012868EBF010E7B017A0679021271017FE7
:107C2F000212869412868EBF030DE4900003F012A9
:087C3F006C7AE4FF1286942226
:107C470012868EBF010E7B017A0679021271017FBF
:107C57000212869412868EBF030DE4900002F01282
:087C67006C7AE4FF12869422FE
:107F970012868EBF010E7B017A0679021271017F6C
:107FA7000212869412868EBF0308126C75E4FF12C4
:037FB7008694228B
:107C6F0012868EBF010E7B017A0579E61271017FB4
:107C7F000212869412868EBF030DE4900004F01258
:087C8F006C7AE4FF12869422D6
:107C970012868EBF010E7B017A0579E61271017F8C
:107CA7000212869412868EBF030DE4900003F01231
:087CB7006C7AE4FF12869422AE
:107CBF0012868EBF010E7B017A0579E61271017F64
:107CCF000212869412868EBF030DE4900002F0120A
:087CDF006C7AE4FF1286942286
:107FBA0012868EBF010E7B017A0579E61271017F66
:107FCA000212869412868EBF0308126C75E4FF12A1
:037FDA0086942268
:107CE70012868EBF010E7B017A0579F11271017F31
:107CF7000212869412868EBF030DE4900004F012E0
:087D07006C7AE4FF128694225D
:107D0F0012868EBF010E7B017A0579F11271017F08
:107D1F000212869412868EBF030DE4900003F012B8
:087D2F006C7AE4FF1286942235
:107D370012868EBF010E7B017A0579F11271017FE0
:107D47000212869412868EBF030DE4900002F01291
:087D57006C7AE4FF128694220D
:107FDD0012868EBF010E7B017A0579F11271017F38
:107FED000212869412868EBF0308126C75E4FF127E
:037FFD0086942245
:107D5F0012868EBF010E7B017A0579FD1271017FAC
:107D6F000212869412868EBF030DE4900004F01267
:087D7F006C7AE4FF12869422E5
:107D870012868EBF010E7B017A0579FD1271017F84
:107D97000212869412868EBF030DE4900003F01240
:087DA7006C7AE4FF12869422BD
:107DAF0012868EBF010E7B017A0579FD1271017F5C
:107DBF000212869412868EBF030DE4900002F01219
:087DCF006C7AE4FF1286942295
:1080000012868EBF010E7B017A0579FD1271017F08
:108010000212869412868EBF0308126C75E4FF125A
:0380200086942221
:107DD70012868EBF010E7B017A0679081271017F28
:107DE7000212869412868EBF030DE4900004F012EF
:087DF7006C7AE4FF128694226D
:107DFF0012868EBF010E7B017A0679081271017F00
:107E0F000212869412868EBF030DE4900003F012C7
:087E1F006C7AE4FF1286942244
:107E270012868EBF010E7B017A0679081271017FD7
:107E37000212869412868EBF030DE4900002F012A0
:087E47006C7AE4FF128694221C
:1080230012868EBF010E7B017A0679081271017FD9
:108033000212869412868EBF0308126C75E4FF1237
:03804300869422FE
:0885A100E4FF12861C0282F4C3
:0885A900E4FF1286220279D6DC
:0885B100E4FF1286340282F49B
:0885B900E4FF12863A0282F48D
:0885C100E4FF1286400282F47F
:10825600E4900588F0128646900588EFF075F003E5
:0D826600A4FF1280AC900588E0FF0282F4B6
:0885C900E4FF12864C0282F46B
:107E9C00E4900588F0128664900588EFF0C3940A8C
:107EAC005005E0FF0282F4900588E0B40B030283D6
:047EBC008D12833868
:017EC000229F
:0885D100E4FF12866A0282F445
:0885D900E4FF1286700282F437
:0885E100E4FF1286760282F429
:10778700E4900588F01283D6900588EFF01282F412
:107797009003A4E0FF900588E06F601D12709F9032
:1077A7000588E09003A4F0128682BF010C7F797EE2
:0977B70000127978E4FF128688C3
:0177C00022A6
:1078A300E4900588F012867C900588EFF01279D673
:1078B300128682BF010D900588E02442FFE433FE67
:1078C3001277C1128718BF010C7F797E001277C12E
:0578D300E4FF12871E16
:0178D800228D
:10748C00E4900588F0A3F0128634900588EFF01292
:10749C00865E900589EFF0900056E0B4340A30A473
:1074AC00077F687E00127978D2CD900589E0700351
:1074BC00D2972212868EBF0107D2977F0212869432
:0D74CC0012868EBF0307C297E4FF1286945C
:0174D9002290
:05876F007F0602810CF1
:0885E900E4FF1286520282F445
:058774007F0702810CEB
:0885F100E4FF1286580282F437
:058779007F0802810CE5
:0885F900E4FF12865E0282F429
:05877E007F0E0280EDFA
:100026007F0112810CE4900396F0A3F0900376F022
:05003600900678F022A5
:1084A4007F0212810CE49003A2F0A3F0900395F0F4
:0184B40022A5
:10641300900376E0707A12868EBF0113127AB690DB
:1064230000027480F0A3F0126C7A7F021286941239
:10643300868EBF030B127AB6126C7AE4FF1286942F
:10644300900396E0FCA3E0FD7B017A057988900533
:10645300CE7408F07FA0126EA87FAA12855DE49027
:106463000590F0900590E0FFC39408501774882FAF
:10647300F582E43405F583E0FF12855D900590E035
:1064830004F080DF7F5512855D9003767401F0225E
:10649300900376E0FFB40224900397E02408F09081
:1064A3000396E03400F0E0B4150CA3E0B460079069
:1064B30003767403F022E4900376F022EFB4031220
:1064C300127AB69000017480F0A3F0A3F0A3F01247
:0264D3006C7AE1
:0164D50022A4
:106ABA00900395E0B401319003A2E0FCA3E0FD7BD2
:106ACA00017A0379999005C47408F07FA01272655F
:106ADA009003A3E02408F09003A2E03400F0E490CD
:106AEA000395F07FAA12855D9003A2E07002A3E0ED
:106AFA00700A127AB69000017480801A9003A2E09C
:106B0A00B41517A3E0B46012127AB690000174802B
:106B1A00F0A3F0A3F0A3F0026C7A12868EBF0113E1
:106B2A00127AB69000027480F0A3F0126C7A7F0297
:106B3A0012869412868EBF030B127AB6126C7AE40E
:056B4A00FF12869422F9
:10281E004106A1004106AA004106A7004106A800F4
:10282E004106A20041069F004106AC004106A400ED
:10283E004106A0004106A6004106A5004106A300E0
:08284E004106AB004106A900A0
:1084E800438901758C3C758AB0D2AFD2A9D28C224F
:0E852300438910758DFF758B9CD2AFD2AB22B1
:03000B000251AEF1
:1051AE00C0E0C0F0C083C082C0D075D000C000C0C7
:0D51BE0001C002C003C004C005C006C00748
:1051CB009005D2E4F0A3F0C28D758C3C758AB012B9
:1051DB0086109005D2EFF01283E99005D3EFF09093
:1051EB0006A1E004F0E0B40A199006AAE004F090DE
:1051FB0006A6E004F09006A1E4F09006A5E060029C
:10520B0014F09006AAE0C394044002E4F09006A6C2
:10521B00E0C394184002E4F09006A3E0600214F09F
:10522B009006A7E0B40104A3E004F0128700BF01CD
:10523B00149006A2E004F0E0D3947840081287069D
:10524B009006A2E4F09006A9E0B401159006ABE03D
:10525B0004F0E0D3947840099006A9E4F09006ABF3
:10526B00F09005D2E0FFB45F1590069FE004F0E0EC
:10527B00B4140B9006ACE004F090069FE4F0EF64DE
:10528B005F60259005D2E0FF6431601CEF646960BC
:10529B0017EF646A60129006A4E004F0E0D394C8A0
:1052AB004006E4F0FF1286169005D2E07015A3E0DD
:1052BB00B402109006A0E004F0E0C3940A4004B2DC
:0352CB00CDE4F03F
:1052CE00D007D006D005D004D003D002D001D00034
:0B52DE00D0D0D082D083D0F0D0E032DE
:03001B000272FE70
:1072FE00C0E0C0F0C083C082C0D075D000C000C056
:0D730E0001C002C003C004C005C006C007D6
:10731B00E4FF128610C28F758DFF758B9CEFB42E18
:09732B000512353C8003124054A8
:10733400D007D006D005D004D003D002D001D000AD
:0B734400D0D0D082D083D0F0D0E03257
:05868E009006AAE0FFC8
:0186930022C4
:068694009006AAEFF0229F
:06869A009006A7EFF0229C
:0586A0009006A8E0FFB8
:0186A50022B2
:0686A600E49006A8F0229A
:0586AC009006ACE0FFA8
:0186B10022A6
:0686B2009006ACEFF0227F
:0686B800E49006A4F0228C
:0686BE009006A8EFF02277
:0586C4009006A6E0FF96
:0186C900228E
:0B853C009006A6EFF0E49006A1F022EC
:0586CA009006A5E0FF91
:0186CF002288
:0B8547009006A5EFF0E49006A1F022E2
:0586D0009006A3E0FF8D
:0186D5002282
:0686D6009006A3EFF02264
:0686DC00E49006A2F0226A
:0686E200E49006ABF0225B
:0686E8009006A9EFF0224C
:0586EE009006A9E0FF69
:0186F3002264
:0B28560048067F140F09040C22000646
:04769000E0FD7F8A10
:10769400D2A0EF54FEFFE4FEEF30E004D2A180025A
:1076A400C2A1D2A2C2A2EFC313FF0EEEB408E9E452
:1076B400FEED30E004D2A18002C2A1D2A2C2A2EDAA
:0A76C400C313FD0EEEB408E9C2A0E6
:0176CE002299
:1076CF00D2A0EF4401FFE4FDEF30E004D2A180022D
:1076DF00C2A1D2A2C2A2EFC313FF0DEDB408E9E419
:1076EF00FDEEC313FE30A1054480FE8004EE547FEF
:0E76FF00FED2A2C2A20DEDB408E7C2A0AF06F3
:01770D002259
:106D0700E4FF747F2FF582E43406F583E0FE75F027
:106D17000A84FDEE75F00A8474872FF582E4340641
:106D2700F583E5F0F0EDC454F0FE74872FF582E4A7
:106D37003406F583E02EF00FEFB408C6E4FD7F8E2E
:106D47001276947D807F80127694900688E0FD7F8E
:106D57008C127694A3E0FD7F88127694A3E0FD7FE2
:106D67008612769490068E12769090068BE0FD7FC1
:106D770084127694A3E0FD7F82127694A3E0FD7FD0
:0F6D870080127694A31276907D807F8E02769490
:106E22007F8C1276CF900688EFF07F881276CFA300
:106E3200EFF07F861276CFA3EFF07F841276CFA396
:106E4200EFF07F821276CFA3EFF07F801276CFEF42
:106E5200547FA3F07F8A1276CFA3EFF0E4FF74870A
:106E62002FF582E43406F583E0FEC4540FFDEE54A0
:106E72000FFE747F2FF582E43406F583EEF0ED7594
:106E8200F00AA4FE747F2FF582E43406F583E02E27
:066E9200F00FEFB408C888
:016E980022D7
:0B855200C2A0C2A2E4FD7F800276946C
:10286100410659004106580041065E0041066100DB
:102871004106680041064D0041064C0043066500D3
:10288100000042065F0046420663007842064900A6
:10289100004206470000420656000042065A004622
:1028A10042065C007842066A000041064B00410680
:1028B10069004106620041064E004106520043068E
:0A28C1004F00000043065300000022
:07860900D2AFD2A8D28822F3
:0300030002860171
:08860100C2A8208E02D28E32C5
:10827300E4900659F0900658F0900661F090065E7F
:0C828300F0900668F090064CF0A3F0228A
:1040540030B205900661800390065EE004F090069D
:104064004DE004F0E0D394A07480948F4007C28E96
:10407400D2A802827390064CE01460411460751457
:10408400700302412314700302419014700302412F
:10409400D72405600302422A900661E0D3940040CD
:1040A4000302422A90065EE0D39446500302423152
:1040B40090064CE004F0E4900661F08032900661D2
:1040C400E0FFFD90065EE02DFDE433FCD3ED948C1F
:1040D400EC64809480400302422AEFD3940150039D
:1040E40002423130A802C2A890064CE004F0E490E9
:1040F400065EF02290065EE0D394014013900661C0
:10410400E0900659F0E4900661F090064CE004F06B
:10411400900661E0D39419500302423102422A907E
:104124000661E0D39401405590065EE0FF90065886
:10413400F0E490065EF090064C7402F0900668E09D
:10414400131313541FFE2465F582E43406F583E04B
:10415400FD25E0F0900659E0D39F400E74652EF5DE
:1041640082E43406F583E04401F0900668E004F04C
:10417400E0D39417400790064C7404F02290065E36
:10418400E0D39419500302423102422A90065EE0C1
:10419400D394004013900661E0900659F0E4900631
:1041A40061F090064CE004F090065FE0FEA3E0FFAF
:1041B400900664E02FFF900663E03EFEEF7803CEA6
:1041C400C313CE13D8F9FF900661E0D39FE49E4059
:1041D4005C8053900661E0D39400401F90065EE03B
:1041E400FF900664E09F900663E09400500AC28E3C
:1041F40090064B7401F0D2A812827390065FE0FE21
:10420400A3E0FF900664E02FFF900663E03EFE907B
:10421400065EE0D39FE49E4014128273D2A8C28E3D
:0E422400E490064BF022128273D2A8C28E22C2
:104DD600E49005ACF01286109005ACEFF090064B0F
:104DE600E064016003024F20F0C2A8900662E0145E
:104DF6006027046003024F1E900665E090064FF0A0
:104E0600900666E0900650F0900667E0900651F036
:104E16009006627401F0024F1E900665E0FF900650
:104E26004FE06F6003024F06900666E0FE90065064
:104E3600E06E6003024F06900667E0FD900651E0C3
:104E46006D6003024F06900653E06F7012A3E06E8A
:104E5600700DA3E0B5050890064EE0702380009023
:104E66000665E0900653F0900666E0900654F090D2
:104E76000667E0900655F09006697401F01286DC2C
:104E860090064E7401F01286B8900654E0FFE4FCDA
:104E9600FDFE7808122B94C004C005C006C007901A
:104EA6000653E0FFE4FCFDFE7810122B94D003D0ED
:104EB60002D001D000EF4BFBEE4AFAED49F9EC487F
:104EC600F8900655E0FFEB4FFFEAFEE9FDE8FC7BB4
:104ED600017A0579AD125F36EF600D9006527401C6
:104EE600F0FF1286881286B8E4900665F0A3F0A358
:104EF600F090064FF0A3F0A3F0E4900662F080185D
:104F0600900665E090064FF0900666E0900650F039
:0A4F1600900667E0900651F0D2A863
:014F2000226E
:10353C0030B205900661800390065EE004F09006C0
:10354C004DE004F0E0D394A07480948F4006C28EBA
:10355C00D2A8802790064CE014605A1470030236EF
:10356C005014700302369B240360030237E290066A
:10357C0061E0D394004007D2A8C28E0282739006F9
:10358C0049E0FEA3E0FF7C007D0F122B06EF243CEC
:10359C00FFE43EFE90065EE0D39FEC9E50030237A4
:1035AC00E990064CE004F090065FEEF0A3EFF0E437
:1035BC00A3F002364B900647E0FEA3E0FF7C007DB3
:1035CC000F122B06EF2478FFE43EFE900661E0F923
:1035DC00FD90065EE02DFDE433FCD3ED9FEC9E40A8
:1035EC0022E9701C900648E004F07006900647E053
:1035FC0004F090064AE004F07006900649E004F0EE
:10360C000237E2E9D3940150030237E9900647E010
:10361C00FEA3E0FF7C007D0F122B06EF2478FFE465
:10362C003E900663F0A3EFF0E4900647F0A3F0A3FE
:10363C00F0A3F030A802C2A890064CE004F0E4908D
:10364C00065EF02290065EE0D39400401390066173
:10365C00E0900659F0E4900661F090064CE004F01E
:10366C0090065FE0FEA3E0FF900664E02FFF90065B
:10367C0063E03EFEEF7803CEC313CE13D8F9FF9070
:10368C000661E0D39FE49E50030237E90237E290D3
:10369C000661E0D3940050030237B790065EE0FF5A
:1036AC00900658F0E490065EF090064C7402F09090
:1036BC000668E0131313541FFE2465F582E43406E8
:1036CC00F583E025E0F0900659E0FDD39F400E74A1
:1036DC00652EF582E43406F583E04401F09006682B
:1036EC00E004F0E0D3941750030237B7C28E900673
:1036FC0058E02DFEE433900656F0A3CEF012827300
:10370C0090066BE004F0700690066AE004F09006F8
:10371C0063E0FEA3E0FF90065DE02FF090065CE016
:10372C003EF0E0C313FEA3E013FF900663EEF0A39C
:10373C00EFF090065CEEF0A3EFF0D390066BE09404
:10374C000190066AE09400405F90065AE0FEA3E008
:10375C00FF90065FE0FCA3E0FD9FFFEC9EFED3EF25
:10376C00941EEE9400401590065BE09DFF90065A67
:10377C00E09CFED3EF941EEE9400502C90065FE07C
:10378C00FEA3E0FF90065BE02FF090065AE03EF0BF
:10379C00E0C313FEA3E013FF90065FEEF0A3EFF07F
:1037AC0090065AEEF0A3EFF0D2A82290065FE0FE4E
:1037BC00A3E0FF900664E02FFF900663E03EFEEF6F
:1037CC007803CEC313CE13D8F9FF90065EE0D39FD7
:0E37DC00E49E40098000128273D2A8C28E22A1
:0586F400900669E0FFA3
:0186F900225E
:0686FA00E4900669F02285
:0587000090064EE0FFB1
:018705002251
:06870600E490064EF02293
:05870C00900652E0FFA1
:018711002245
:06871200E4900652F02283
:08857800900656E0FEA3E0FFAF
:0185800022D8
:1028CB004804D600000000000000004105830044CE
:1028DB00057F000000004104D30060A004DF00006E
:1028EB0000000000000000000000000000000000DD
:1028FB0000000000000000000000000000000000CD
:10290B0000000000000000000000000000000000BC
:10291B0000000000000000000000000000000000AC
:10292B00000000000000000000000000000000009C
:10293B00000000000000000000000000000000008C
:10294B00000000000000000000000000000000007C
:10295B00000000000000000000000000000000006C
:10296B00000000000000000000000000000000005C
:10297B000000000000000000000000000000410407
:0A298B00D5004104D4004104DE0031
:10111B00E4900598F0A3F090059BF09005A4F0A344
:10112B00F0A3F0A3F0A3F0A3F0A3F0A3F0128610AA
:10113B009005A4EFF01283D69005A5EFF012867CF4
:10114B009005A6EFF012861C9005A7EFF0128622F1
:10115B009005A8EFF012862290059BEFF0128664A3
:10116B009005A9EFF01286349005AAEFF012863A9B
:10117B009005ABEFF0124DD61286F4EF64016003CD
:10118B00021BEF900654E0FFE4FCFDFE7808122BE7
:10119B0094C004C005C006C007900653E0FFE4FCF2
:1011AB00FDFE7810122B94D003D002D001D000EFAB
:1011BB004BFBEE4AFAED49F9EC48F8900655E0FF87
:1011CB00EB4FFFEAFEE9FDE8FC900594122C119021
:1011DB0005A4E024CE24FC400302187A24FC40032F
:1011EB0002193A24FC40030219FA24FC4003021AA8
:1011FB00BA24E47003021B8B147003021419245FCE
:10120B006003021BECE4FF1286B2900655E054F02B
:10121B00FF7014900653E0C4540FFE9005A9E0B57F
:10122B000605C3940A40119005A9E0640B60030204
:10123B0012EAEF60030212EA9005A5E0900655B49E
:10124B00010CE0540F247BF582E43403800AE05454
:10125B000F2446F582E43400F583E090059CF09072
:10126B000653E0FFC4540F90059DF0EF540FA3F00D
:10127B00900654E0FFC4540F90059FF0EF540FA35A
:10128B00F0900653E09005A1F0900654E09005A273
:10129B00F0900655E09005A3F090059CE0FF6433B9
:1012AB006008EF600512685380030217419005A890
:1012BB00E0FF9004D3E0C39F5003E004F0127AB632
:1012CB009005AF7401F0A37405F0A3749CF07B013F
:1012DB007A007956127E767F5F128616021BEC7BA4
:1012EB00017A05798C900594E0FCA3E0FDA3E0FE68
:1012FB00A3E0FF126F78EF3395E0FE900598F0A313
:10130B00EFF04E7003021BEC900594E0FCA3E0FDA4
:10131B00A3E0FEA3E0FF90057FE0F8A3E0F9A3E0D4
:10132B00FAA3E0FBC3122B8370091286EEEF601F4A
:10133B00021BEC900594E0FCA3E0FDA3E0FEA3E010
:10134B00FF90057F122C111286E27F011286E89026
:10135B000598E0FEA3E0FF64014E700890059C74B5
:10136B0033F08018EF64024E700890059C7434F0D3
:10137B00800A900655E0540F90059CF0789D7C05F3
:10138B007D017B017A05798C7E007F04122A6690A1
:10139B000655E0FF9005A3F090059CE0C3943250F6
:1013AB00279005A5E0B4010CEF540F247BF582E4E4
:1013BB003403800D900655E0540F2446F582E43437
:1013CB0000F583E090059CF090059CE0FF64336092
:1013DB0008EF600512685380139005A8E0FF900496
:1013EB00D3E0C39F5003E004F0021741127AB6908A
:1013FB0005AF7401F0A37405F0A3749CF07B017A24
:10140B00007956127E767F5F128616021874E4FFFF
:10141B001286B2900655E054F0FF7014900653E01C
:10142B00C4540FFE9005A9E0B50605C3940A4011FC
:10143B009005A9E0640B6003021610EF600302161F
:10144B00109005A5E0900655B4010CE0540F247BD9
:10145B00F582E43403800AE0540F2446F582E43429
:10146B0000F583E090059CF0900653E0FFC4540F09
:10147B0090059DF0EF540FA3F0900654E0FFC45479
:10148B000F90059FF0EF540FA3F0900653E09005DB
:10149B00A1F0900654E09005A2F0900655E090055F
:1014AB00A3F09005A7E06401702790059CE0FF6412
:1014BB00336008EF600512685380030217419005F3
:1014CB00A8E0FF9004D3E0C39F4003021BEC021B78
:1014DB00869005A7E064026003021BEC90059CE07C
:1014EB00FF64336003EF7003021741E490059AF039
:1014FB009005A8E0FF90059AE0FEC39F40030215FC
:10150B00A4EE75F008A4FFAEF02457F58274003EEC
:10151B00F583E0FD90059DE0FCED6C707374582F26
:10152B00F58274003EF583E0FF90059EE0FEEF6EC2
:10153B00705E90059AE075F008A4FFAEF02459F5A3
:10154B008274003EF583E0FD90059FE0FCED6C702E
